{
    "_format": "hh-sol-artifact-1",
    "contractName": "NFTMarketPlace",
    "sourceName": "contracts/NFTMarketplace.sol",
    "abi": [
        {
            "inputs": [],
            "name": "NotApproved",
            "type": "error"
        },
        {
            "anonymous": false,
            "inputs": [
                {
                    "indexed": true,
                    "internalType": "address",
                    "name": "buyer",
                    "type": "address"
                },
                {
                    "indexed": true,
                    "internalType": "address",
                    "name": "nftAddress",
                    "type": "address"
                },
                {
                    "indexed": false,
                    "internalType": "uint256",
                    "name": "price",
                    "type": "uint256"
                },
                {
                    "indexed": false,
                    "internalType": "uint256",
                    "name": "fraction",
                    "type": "uint256"
                }
            ],
            "name": "LogItemBought",
            "type": "event"
        },
        {
            "anonymous": false,
            "inputs": [
                {
                    "indexed": true,
                    "internalType": "address",
                    "name": "seller",
                    "type": "address"
                },
                {
                    "indexed": true,
                    "internalType": "address",
                    "name": "nftAddress",
                    "type": "address"
                }
            ],
            "name": "LogItemCancelled",
            "type": "event"
        },
        {
            "anonymous": false,
            "inputs": [
                {
                    "indexed": true,
                    "internalType": "address",
                    "name": "seller",
                    "type": "address"
                },
                {
                    "indexed": true,
                    "internalType": "address",
                    "name": "nftAddress",
                    "type": "address"
                },
                {
                    "indexed": false,
                    "internalType": "uint256",
                    "name": "price",
                    "type": "uint256"
                }
            ],
            "name": "LogItemListed",
            "type": "event"
        },
        {
            "inputs": [
                {
                    "internalType": "address",
                    "name": "nftAddress",
                    "type": "address"
                },
                {
                    "internalType": "uint256",
                    "name": "fraction",
                    "type": "uint256"
                }
            ],
            "name": "buyItem",
            "outputs": [],
            "stateMutability": "payable",
            "type": "function"
        },
        {
            "inputs": [
                {
                    "internalType": "address",
                    "name": "nftAddress",
                    "type": "address"
                }
            ],
            "name": "cancelListing",
            "outputs": [],
            "stateMutability": "nonpayable",
            "type": "function"
        },
        {
            "inputs": [
                {
                    "internalType": "address",
                    "name": "nftAddress",
                    "type": "address"
                }
            ],
            "name": "getListing",
            "outputs": [
                {
                    "components": [
                        {
                            "internalType": "uint256",
                            "name": "price",
                            "type": "uint256"
                        },
                        {
                            "internalType": "address",
                            "name": "seller",
                            "type": "address"
                        }
                    ],
                    "internalType": "struct NFTMarketPlace.Listing",
                    "name": "",
                    "type": "tuple"
                }
            ],
            "stateMutability": "view",
            "type": "function"
        },
        {
            "inputs": [
                {
                    "internalType": "address",
                    "name": "seller",
                    "type": "address"
                }
            ],
            "name": "getProceeds",
            "outputs": [
                {
                    "internalType": "uint256",
                    "name": "",
                    "type": "uint256"
                }
            ],
            "stateMutability": "view",
            "type": "function"
        },
        {
            "inputs": [
                {
                    "internalType": "address",
                    "name": "nftAddress",
                    "type": "address"
                },
                {
                    "internalType": "uint256",
                    "name": "amount",
                    "type": "uint256"
                },
                {
                    "internalType": "uint256",
                    "name": "price",
                    "type": "uint256"
                },
                {
                    "internalType": "uint256",
                    "name": "deadline",
                    "type": "uint256"
                },
                {
                    "internalType": "uint8",
                    "name": "v",
                    "type": "uint8"
                },
                {
                    "internalType": "bytes32",
                    "name": "r",
                    "type": "bytes32"
                },
                {
                    "internalType": "bytes32",
                    "name": "s",
                    "type": "bytes32"
                }
            ],
            "name": "listItemWithPermit",
            "outputs": [],
            "stateMutability": "nonpayable",
            "type": "function"
        },
        {
            "inputs": [],
            "name": "numListings",
            "outputs": [
                {
                    "internalType": "uint256",
                    "name": "",
                    "type": "uint256"
                }
            ],
            "stateMutability": "view",
            "type": "function"
        },
        {
            "inputs": [
                {
                    "internalType": "address",
                    "name": "",
                    "type": "address"
                }
            ],
            "name": "s_listings",
            "outputs": [
                {
                    "internalType": "uint256",
                    "name": "price",
                    "type": "uint256"
                },
                {
                    "internalType": "address",
                    "name": "seller",
                    "type": "address"
                }
            ],
            "stateMutability": "view",
            "type": "function"
        },
        {
            "inputs": [
                {
                    "internalType": "address",
                    "name": "",
                    "type": "address"
                }
            ],
            "name": "s_proceeds",
            "outputs": [
                {
                    "internalType": "uint256",
                    "name": "",
                    "type": "uint256"
                }
            ],
            "stateMutability": "view",
            "type": "function"
        },
        {
            "inputs": [],
            "name": "withdrawProceeds",
            "outputs": [],
            "stateMutability": "nonpayable",
            "type": "function"
        }
    ],
    "bytecode": "0x608060405234801561001057600080fd5b506115b8806100206000396000f3fe6080604052600436106100865760003560e01c80634724da6f116100595780634724da6f146101805780637fc41de1146101a95780639038e693146101d257806390af04c1146101e95780639f37092a1461021457610086565b8063036df6661461008b578063084af0b2146100c857806323fbb4a51461010557806330cfeda914610143575b600080fd5b34801561009757600080fd5b506100b260048036038101906100ad9190610e0e565b610230565b6040516100bf9190610e54565b60405180910390f35b3480156100d457600080fd5b506100ef60048036038101906100ea9190610e0e565b610248565b6040516100fc9190610ebc565b60405180910390f35b34801561011157600080fd5b5061012c60048036038101906101279190610e0e565b610301565b60405161013a929190610ee6565b60405180910390f35b34801561014f57600080fd5b5061016a60048036038101906101659190610e0e565b610345565b6040516101779190610e54565b60405180910390f35b34801561018c57600080fd5b506101a760048036038101906101a29190610e0e565b61038e565b005b3480156101b557600080fd5b506101d060048036038101906101cb9190610faa565b6105b7565b005b3480156101de57600080fd5b506101e76108cf565b005b3480156101f557600080fd5b506101fe610a20565b60405161020b9190610e54565b60405180910390f35b61022e6004803603810190610229919061104c565b610a29565b005b60026020528060005260406000206000915090505481565b610250610d7b565b600160008373ffffffffffffffffffffffffffffffffffffffff1673ffffffffffffffffffffffffffffffffffffffff168152602001908152602001600020604051806040016040529081600082015481526020016001820160009054906101000a900473ffffffffffffffffffffffffffffffffffffffff1673ffffffffffffffffffffffffffffffffffffffff1673ffffffffffffffffffffffffffffffffffffffff16815250509050919050565b60016020528060005260406000206000915090508060000154908060010160009054906101000a900473ffffffffffffffffffffffffffffffffffffffff16905082565b6000600260008373ffffffffffffffffffffffffffffffffffffffff1673ffffffffffffffffffffffffffffffffffffffff168152602001908152602001600020549050919050565b80610397610d73565b600082905060008173ffffffffffffffffffffffffffffffffffffffff166370a08231846040518263ffffffff1660e01b81526004016103d7919061108c565b602060405180830381865afa1580156103f4573d6000803e3d6000fd5b505050506040513d601f19601f8201168201806040525081019061041891906110bc565b11610458576040517f08c379a000000000000000000000000000000000000000000000000000000000815260040161044f90611146565b60405180910390fd5b836000600160008373ffffffffffffffffffffffffffffffffffffffff1673ffffffffffffffffffffffffffffffffffffffff16815260200190815260200160002060000154116104de576040517f08c379a00000000000000000000000000000000000000000000000000000000081526004016104d5906111b2565b60405180910390fd5b600160008673ffffffffffffffffffffffffffffffffffffffff1673ffffffffffffffffffffffffffffffffffffffff1681526020019081526020016000206000808201600090556001820160006101000a81549073ffffffffffffffffffffffffffffffffffffffff021916905550508473ffffffffffffffffffffffffffffffffffffffff1661056e610d73565b73ffffffffffffffffffffffffffffffffffffffff167f27684496dd637c75125d32eb2d9a82216ea7fd95067f19a066914e93bc4323d260405160405180910390a35050505050565b866000600160008373ffffffffffffffffffffffffffffffffffffffff1673ffffffffffffffffffffffffffffffffffffffff168152602001908152602001600020600001541461063d576040517f08c379a00000000000000000000000000000000000000000000000000000000081526004016106349061121e565b60405180910390fd5b60008890508073ffffffffffffffffffffffffffffffffffffffff1663d505accf610666610d73565b308b8a8a8a8a6040518863ffffffff1660e01b815260040161068e979695949392919061125c565b600060405180830381600087803b1580156106a857600080fd5b505af11580156106bc573d6000803e3d6000fd5b50505050878173ffffffffffffffffffffffffffffffffffffffff1663dd62ed3e6106e5610d73565b306040518363ffffffff1660e01b81526004016107039291906112cb565b602060405180830381865afa158015610720573d6000803e3d6000fd5b505050506040513d601f19601f8201168201806040525081019061074491906110bc565b101561077c576040517fc19f17a900000000000000000000000000000000000000000000000000000000815260040160405180910390fd5b6040518060400160405280888152602001610795610d73565b73ffffffffffffffffffffffffffffffffffffffff16815250600160008b73ffffffffffffffffffffffffffffffffffffffff1673ffffffffffffffffffffffffffffffffffffffff1681526020019081526020016000206000820151816000015560208201518160010160006101000a81548173ffffffffffffffffffffffffffffffffffffffff021916908373ffffffffffffffffffffffffffffffffffffffff1602179055509050508873ffffffffffffffffffffffffffffffffffffffff16610860610d73565b73ffffffffffffffffffffffffffffffffffffffff167ff3f0bb188e969a2f3f035c0aa4309dc7801440971970e4e18f11afb37a72d016896040516108a59190610e54565b60405180910390a36000808154809291906108bf90611323565b9190505550505050505050505050565b6000600260006108dd610d73565b73ffffffffffffffffffffffffffffffffffffffff1673ffffffffffffffffffffffffffffffffffffffff1681526020019081526020016000205490506000811161095d576040517f08c379a0000000000000000000000000000000000000000000000000000000008152600401610954906113b7565b60405180910390fd5b60006002600061096b610d73565b73ffffffffffffffffffffffffffffffffffffffff1673ffffffffffffffffffffffffffffffffffffffff1681526020019081526020016000208190555060006109b3610d73565b73ffffffffffffffffffffffffffffffffffffffff16826040516109d690611408565b60006040518083038185875af1925050503d8060008114610a13576040519150601f19603f3d011682016040523d82523d6000602084013e610a18565b606091505b505090505050565b60008054905090565b816000600160008373ffffffffffffffffffffffffffffffffffffffff1673ffffffffffffffffffffffffffffffffffffffff1681526020019081526020016000206000015411610aaf576040517f08c379a0000000000000000000000000000000000000000000000000000000008152600401610aa6906111b2565b60405180910390fd5b6000600160008573ffffffffffffffffffffffffffffffffffffffff1673ffffffffffffffffffffffffffffffffffffffff168152602001908152602001600020604051806040016040529081600082015481526020016001820160009054906101000a900473ffffffffffffffffffffffffffffffffffffffff1673ffffffffffffffffffffffffffffffffffffffff1673ffffffffffffffffffffffffffffffffffffffff168152505090508060000151341015610ba4576040517f08c379a0000000000000000000000000000000000000000000000000000000008152600401610b9b90611469565b60405180910390fd5b3460026000836020015173ffffffffffffffffffffffffffffffffffffffff1673ffffffffffffffffffffffffffffffffffffffff1681526020019081526020016000206000828254610bf79190611489565b92505081905550600160008573ffffffffffffffffffffffffffffffffffffffff1673ffffffffffffffffffffffffffffffffffffffff1681526020019081526020016000206000808201600090556001820160006101000a81549073ffffffffffffffffffffffffffffffffffffffff021916905550508373ffffffffffffffffffffffffffffffffffffffff166323b872dd8260200151610c98610d73565b866040518463ffffffff1660e01b8152600401610cb7939291906114bd565b6020604051808303816000875af1158015610cd6573d6000803e3d6000fd5b505050506040513d601f19601f82011682018060405250810190610cfa919061152c565b508373ffffffffffffffffffffffffffffffffffffffff16610d1a610d73565b73ffffffffffffffffffffffffffffffffffffffff167f4e4294ab7366efb224569d5817c1b3959188f54db37c216798e96643ca3d034f836000015186604051610d65929190611559565b60405180910390a350505050565b600033905090565b604051806040016040528060008152602001600073ffffffffffffffffffffffffffffffffffffffff1681525090565b600080fd5b600073ffffffffffffffffffffffffffffffffffffffff82169050919050565b6000610ddb82610db0565b9050919050565b610deb81610dd0565b8114610df657600080fd5b50565b600081359050610e0881610de2565b92915050565b600060208284031215610e2457610e23610dab565b5b6000610e3284828501610df9565b91505092915050565b6000819050919050565b610e4e81610e3b565b82525050565b6000602082019050610e696000830184610e45565b92915050565b610e7881610e3b565b82525050565b610e8781610dd0565b82525050565b604082016000820151610ea36000850182610e6f565b506020820151610eb66020850182610e7e565b50505050565b6000604082019050610ed16000830184610e8d565b92915050565b610ee081610dd0565b82525050565b6000604082019050610efb6000830185610e45565b610f086020830184610ed7565b9392505050565b610f1881610e3b565b8114610f2357600080fd5b50565b600081359050610f3581610f0f565b92915050565b600060ff82169050919050565b610f5181610f3b565b8114610f5c57600080fd5b50565b600081359050610f6e81610f48565b92915050565b6000819050919050565b610f8781610f74565b8114610f9257600080fd5b50565b600081359050610fa481610f7e565b92915050565b600080600080600080600060e0888a031215610fc957610fc8610dab565b5b6000610fd78a828b01610df9565b9750506020610fe88a828b01610f26565b9650506040610ff98a828b01610f26565b955050606061100a8a828b01610f26565b945050608061101b8a828b01610f5f565b93505060a061102c8a828b01610f95565b92505060c061103d8a828b01610f95565b91505092959891949750929550565b6000806040838503121561106357611062610dab565b5b600061107185828601610df9565b925050602061108285828601610f26565b9150509250929050565b60006020820190506110a16000830184610ed7565b92915050565b6000815190506110b681610f0f565b92915050565b6000602082840312156110d2576110d1610dab565b5b60006110e0848285016110a7565b91505092915050565b600082825260208201905092915050565b7f4e6f74204f776e65720000000000000000000000000000000000000000000000600082015250565b60006111306009836110e9565b915061113b826110fa565b602082019050919050565b6000602082019050818103600083015261115f81611123565b9050919050565b7f4e6f74204c697374656400000000000000000000000000000000000000000000600082015250565b600061119c600a836110e9565b91506111a782611166565b602082019050919050565b600060208201905081810360008301526111cb8161118f565b9050919050565b7f416c7265616479204c6973746564000000000000000000000000000000000000600082015250565b6000611208600e836110e9565b9150611213826111d2565b602082019050919050565b60006020820190508181036000830152611237816111fb565b9050919050565b61124781610f3b565b82525050565b61125681610f74565b82525050565b600060e082019050611271600083018a610ed7565b61127e6020830189610ed7565b61128b6040830188610e45565b6112986060830187610e45565b6112a5608083018661123e565b6112b260a083018561124d565b6112bf60c083018461124d565b98975050505050505050565b60006040820190506112e06000830185610ed7565b6112ed6020830184610ed7565b9392505050565b7f4e487b7100000000000000000000000000000000000000000000000000000000600052601160045260246000fd5b600061132e82610e3b565b91507fffffffffffffffffffffffffffffffffffffffffffffffffffffffffffffffff82036113605761135f6112f4565b5b600182019050919050565b7f4e6f2070726f6365656473000000000000000000000000000000000000000000600082015250565b60006113a1600b836110e9565b91506113ac8261136b565b602082019050919050565b600060208201905081810360008301526113d081611394565b9050919050565b600081905092915050565b50565b60006113f26000836113d7565b91506113fd826113e2565b600082019050919050565b6000611413826113e5565b9150819050919050565b7f5072696365206e6f74206d657400000000000000000000000000000000000000600082015250565b6000611453600d836110e9565b915061145e8261141d565b602082019050919050565b6000602082019050818103600083015261148281611446565b9050919050565b600061149482610e3b565b915061149f83610e3b565b92508282019050808211156114b7576114b66112f4565b5b92915050565b60006060820190506114d26000830186610ed7565b6114df6020830185610ed7565b6114ec6040830184610e45565b949350505050565b60008115159050919050565b611509816114f4565b811461151457600080fd5b50565b60008151905061152681611500565b92915050565b60006020828403121561154257611541610dab565b5b600061155084828501611517565b91505092915050565b600060408201905061156e6000830185610e45565b61157b6020830184610e45565b939250505056fea2646970667358221220c7177cd11fb577d69f47f610fbcf7b40d2425fe1a9a6100d012573e5fc22d4e264736f6c63430008140033",
    "linkReferences": {},
    "deployedLinkReferences": {}
}